{
  "contractName": "CrowdFundingWithDeadline",
  "abi": [
    {
      "inputs": [
        {
          "internalType": "string",
          "name": "campaignName",
          "type": "string"
        },
        {
          "internalType": "uint256",
          "name": "targetAmountEth",
          "type": "uint256"
        },
        {
          "internalType": "int256",
          "name": "durationInMin",
          "type": "int256"
        },
        {
          "internalType": "address",
          "name": "beneficiaryAddress",
          "type": "address"
        }
      ],
      "stateMutability": "nonpayable",
      "type": "constructor"
    },
    {
      "anonymous": false,
      "inputs": [
        {
          "indexed": false,
          "internalType": "address",
          "name": "addr",
          "type": "address"
        },
        {
          "indexed": false,
          "internalType": "uint256",
          "name": "totalCollected",
          "type": "uint256"
        },
        {
          "indexed": false,
          "internalType": "bool",
          "name": "succeeded",
          "type": "bool"
        }
      ],
      "name": "CampaignFinished",
      "type": "event"
    },
    {
      "inputs": [
        {
          "internalType": "address",
          "name": "",
          "type": "address"
        }
      ],
      "name": "amounts",
      "outputs": [
        {
          "internalType": "uint256",
          "name": "",
          "type": "uint256"
        }
      ],
      "stateMutability": "view",
      "type": "function",
      "constant": true
    },
    {
      "inputs": [],
      "name": "beneficiary",
      "outputs": [
        {
          "internalType": "address",
          "name": "",
          "type": "address"
        }
      ],
      "stateMutability": "view",
      "type": "function",
      "constant": true
    },
    {
      "inputs": [],
      "name": "campaignDeadline",
      "outputs": [
        {
          "internalType": "int256",
          "name": "",
          "type": "int256"
        }
      ],
      "stateMutability": "view",
      "type": "function",
      "constant": true
    },
    {
      "inputs": [],
      "name": "collected",
      "outputs": [
        {
          "internalType": "bool",
          "name": "",
          "type": "bool"
        }
      ],
      "stateMutability": "view",
      "type": "function",
      "constant": true
    },
    {
      "inputs": [],
      "name": "counter",
      "outputs": [
        {
          "internalType": "uint256",
          "name": "",
          "type": "uint256"
        }
      ],
      "stateMutability": "view",
      "type": "function",
      "constant": true
    },
    {
      "inputs": [],
      "name": "name",
      "outputs": [
        {
          "internalType": "string",
          "name": "",
          "type": "string"
        }
      ],
      "stateMutability": "view",
      "type": "function",
      "constant": true
    },
    {
      "inputs": [],
      "name": "state",
      "outputs": [
        {
          "internalType": "enum CrowdFundingWithDeadline.State",
          "name": "",
          "type": "uint8"
        }
      ],
      "stateMutability": "view",
      "type": "function",
      "constant": true
    },
    {
      "inputs": [],
      "name": "targetAmount",
      "outputs": [
        {
          "internalType": "uint256",
          "name": "",
          "type": "uint256"
        }
      ],
      "stateMutability": "view",
      "type": "function",
      "constant": true
    },
    {
      "inputs": [],
      "name": "totalCollected",
      "outputs": [
        {
          "internalType": "uint256",
          "name": "",
          "type": "uint256"
        }
      ],
      "stateMutability": "view",
      "type": "function",
      "constant": true
    },
    {
      "inputs": [],
      "name": "contribute",
      "outputs": [],
      "stateMutability": "payable",
      "type": "function",
      "payable": true
    },
    {
      "inputs": [],
      "name": "finishCrowdFunding",
      "outputs": [],
      "stateMutability": "nonpayable",
      "type": "function"
    },
    {
      "inputs": [],
      "name": "collect",
      "outputs": [],
      "stateMutability": "nonpayable",
      "type": "function"
    },
    {
      "inputs": [],
      "name": "withdraw",
      "outputs": [],
      "stateMutability": "nonpayable",
      "type": "function"
    },
    {
      "inputs": [],
      "name": "beforeDeadline",
      "outputs": [
        {
          "internalType": "bool",
          "name": "",
          "type": "bool"
        }
      ],
      "stateMutability": "view",
      "type": "function",
      "constant": true
    },
    {
      "inputs": [
        {
          "internalType": "int256",
          "name": "newTime",
          "type": "int256"
        }
      ],
      "name": "setCurrentTime",
      "outputs": [],
      "stateMutability": "nonpayable",
      "type": "function"
    },
    {
      "inputs": [],
      "name": "getTotalCollected",
      "outputs": [
        {
          "internalType": "uint256",
          "name": "",
          "type": "uint256"
        }
      ],
      "stateMutability": "view",
      "type": "function",
      "constant": true
    },
    {
      "inputs": [],
      "name": "inProgress",
      "outputs": [
        {
          "internalType": "bool",
          "name": "",
          "type": "bool"
        }
      ],
      "stateMutability": "view",
      "type": "function",
      "constant": true
    },
    {
      "inputs": [],
      "name": "isSuccessful",
      "outputs": [
        {
          "internalType": "bool",
          "name": "",
          "type": "bool"
        }
      ],
      "stateMutability": "view",
      "type": "function",
      "constant": true
    },
    {
      "inputs": [
        {
          "internalType": "uint256",
          "name": "sumInEth",
          "type": "uint256"
        }
      ],
      "name": "etherToWei",
      "outputs": [
        {
          "internalType": "uint256",
          "name": "",
          "type": "uint256"
        }
      ],
      "stateMutability": "pure",
      "type": "function",
      "constant": true
    },
    {
      "inputs": [
        {
          "internalType": "uint256",
          "name": "timeInMin",
          "type": "uint256"
        }
      ],
      "name": "minutesToSeconds",
      "outputs": [
        {
          "internalType": "uint256",
          "name": "",
          "type": "uint256"
        }
      ],
      "stateMutability": "pure",
      "type": "function",
      "constant": true
    },
    {
      "inputs": [],
      "name": "incrementCounter",
      "outputs": [],
      "stateMutability": "nonpayable",
      "type": "function"
    },
    {
      "inputs": [],
      "name": "getBackers",
      "outputs": [
        {
          "internalType": "uint256",
          "name": "",
          "type": "uint256"
        }
      ],
      "stateMutability": "view",
      "type": "function",
      "constant": true
    },
    {
      "inputs": [],
      "name": "getCampaign",
      "outputs": [
        {
          "internalType": "string",
          "name": "campaignName",
          "type": "string"
        },
        {
          "internalType": "uint256",
          "name": "targetAmountEth",
          "type": "uint256"
        },
        {
          "internalType": "address",
          "name": "beneficiaryAddress",
          "type": "address"
        },
        {
          "internalType": "uint256",
          "name": "totalCollect",
          "type": "uint256"
        },
        {
          "internalType": "enum CrowdFundingWithDeadline.State",
          "name": "currentState",
          "type": "uint8"
        }
      ],
      "stateMutability": "view",
      "type": "function",
      "constant": true
    }
  ],
  "bytecode": "0x6080604052600080553480156200001557600080fd5b50604051620013a2380380620013a2833981810160405260808110156200003b57600080fd5b81019080805160405193929190846401000000008211156200005c57600080fd5b838201915060208201858111156200007357600080fd5b82518660018202830111640100000000821117156200009157600080fd5b8083526020830192505050908051906020019080838360005b83811015620000c7578082015181840152602081019050620000aa565b50505050905090810190601f168015620000f55780820380516001836020036101000a031916815260200191505b50604052602001805190602001909291908051906020019092919080519060200190929190505050836002908051906020019062000135929190620001be565b50670de0b6b3a764000083026003819055508160048190555080600560006101000a81548173ffffffffffffffffffffffffffffffffffffffff021916908373ffffffffffffffffffffffffffffffffffffffff1602179055506000600560146101000a81548160ff02191690836003811115620001af57fe5b0217905550505050506200026d565b828054600181600116156101000203166002900490600052602060002090601f016020900481019282601f106200020157805160ff191683800117855562000232565b8280016001018555821562000232579182015b828111156200023157825182559160200191906001019062000214565b5b50905062000241919062000245565b5090565b6200026a91905b80821115620002665760008160009055506001016200024c565b5090565b90565b611125806200027d6000396000f3fe6080604052600436106101405760003560e01c806368bc0041116100b6578063d7bb99ba1161006f578063d7bb99ba146105b8578063d8916bb9146105c2578063e29eb83614610611578063e52253811461063c578063ec4cd0cf14610653578063fbe5d87e1461068257610140565b806368bc00411461048c5780636aee80db146104bb57806384bcefd4146104f65780638735181314610525578063953b8fb814610554578063c19d93fb1461057f57610140565b806338af3eed1161010857806338af3eed146103285780633ccfd60b1461037f578063529b380f1461039657806355a3b2c1146103e55780635b34b9661461044a57806361bc221a1461046157610140565b806306fdde0314610145578063083dca11146101d55780631d6f8223146101ec578063236b8e3a1461021757806330f3e3da146102fd575b600080fd5b34801561015157600080fd5b5061015a6106ad565b6040518080602001828103825283818151815260200191508051906020019080838360005b8381101561019a57808201518184015260208101905061017f565b50505050905090810190601f1680156101c75780820380516001836020036101000a031916815260200191505b509250505060405180910390f35b3480156101e157600080fd5b506101ea61074b565b005b3480156101f857600080fd5b50610201610922565b6040518082815260200191505060405180910390f35b34801561022357600080fd5b5061022c610928565b60405180806020018681526020018573ffffffffffffffffffffffffffffffffffffffff1673ffffffffffffffffffffffffffffffffffffffff16815260200184815260200183600381111561027e57fe5b60ff168152602001828103825287818151815260200191508051906020019080838360005b838110156102be5780820151818401526020810190506102a3565b50505050905090810190601f1680156102eb5780820380516001836020036101000a031916815260200191505b50965050505050505060405180910390f35b34801561030957600080fd5b50610312610a15565b6040518082815260200191505060405180910390f35b34801561033457600080fd5b5061033d610a1e565b604051808273ffffffffffffffffffffffffffffffffffffffff1673ffffffffffffffffffffffffffffffffffffffff16815260200191505060405180910390f35b34801561038b57600080fd5b50610394610a44565b005b3480156103a257600080fd5b506103cf600480360360208110156103b957600080fd5b8101908080359060200190929190505050610ca0565b6040518082815260200191505060405180910390f35b3480156103f157600080fd5b506104346004803603602081101561040857600080fd5b81019080803573ffffffffffffffffffffffffffffffffffffffff169060200190929190505050610cad565b6040518082815260200191505060405180910390f35b34801561045657600080fd5b5061045f610cc5565b005b34801561046d57600080fd5b50610476610cd7565b6040518082815260200191505060405180910390f35b34801561049857600080fd5b506104a1610cdd565b604051808215151515815260200191505060405180910390f35b3480156104c757600080fd5b506104f4600480360360208110156104de57600080fd5b8101908080359060200190929190505050610d09565b005b34801561050257600080fd5b5061050b610d13565b604051808215151515815260200191505060405180910390f35b34801561053157600080fd5b5061053a610d26565b604051808215151515815260200191505060405180910390f35b34801561056057600080fd5b50610569610d85565b6040518082815260200191505060405180910390f35b34801561058b57600080fd5b50610594610d8b565b604051808260038111156105a457fe5b60ff16815260200191505060405180910390f35b6105c0610d9e565b005b3480156105ce57600080fd5b506105fb600480360360208110156105e557600080fd5b8101908080359060200190929190505050610f26565b6040518082815260200191505060405180910390f35b34801561061d57600080fd5b50610626610f3a565b6040518082815260200191505060405180910390f35b34801561064857600080fd5b50610651610f40565b005b34801561065f57600080fd5b5061066861108b565b604051808215151515815260200191505060405180910390f35b34801561068e57600080fd5b506106976110ba565b6040518082815260200191505060405180910390f35b60028054600181600116156101000203166002900480601f0160208091040260200160405190810160405280929190818152602001828054600181600116156101000203166002900480156107435780601f1061071857610100808354040283529160200191610743565b820191906000526020600020905b81548152906001019060200180831161072657829003601f168201915b505050505081565b600080600381111561075957fe5b600560149054906101000a900460ff16600381111561077457fe5b146107e7576040517f08c379a000000000000000000000000000000000000000000000000000000000815260040180806020018281038252600d8152602001807f496e76616c69642073746174650000000000000000000000000000000000000081525060200191505060405180910390fd5b6004546107f26110c4565b128015610806575060006108046110c4565b135b1561087257600760009054906101000a900460ff16610848576001600560146101000a81548160ff0219169083600381111561083e57fe5b021790555061086d565b6002600560146101000a81548160ff0219169083600381111561086757fe5b02179055505b610897565b6001600560146101000a81548160ff0219169083600381111561089157fe5b02179055505b7f6fa7e87ebbd87ed4f1c40bba63144f68fd2bb022fb748ab3b61b5411c39bd47430600854600760009054906101000a900460ff16604051808473ffffffffffffffffffffffffffffffffffffffff1673ffffffffffffffffffffffffffffffffffffffff16815260200183815260200182151515158152602001935050505060405180910390a150565b60045481565b606060008060008060028054600181600116156101000203166002900480601f0160208091040260200160405190810160405280929190818152602001828054600181600116156101000203166002900480156109c65780601f1061099b576101008083540402835291602001916109c6565b820191906000526020600020905b8154815290600101906020018083116109a957829003601f168201915b505050505094506003549350600560009054906101000a900473ffffffffffffffffffffffffffffffffffffffff1692506008549150600560149054906101000a900460ff1690509091929394565b60008054905090565b600560009054906101000a900473ffffffffffffffffffffffffffffffffffffffff1681565b6001806003811115610a5257fe5b600560149054906101000a900460ff166003811115610a6d57fe5b14610ae0576040517f08c379a000000000000000000000000000000000000000000000000000000000815260040180806020018281038252600d8152602001807f496e76616c69642073746174650000000000000000000000000000000000000081525060200191505060405180910390fd5b6000600660003373ffffffffffffffffffffffffffffffffffffffff1673ffffffffffffffffffffffffffffffffffffffff1681526020019081526020016000205411610b95576040517f08c379a00000000000000000000000000000000000000000000000000000000081526004018080602001828103825260178152602001807f4e6f7468696e672077617320636f6e747269627574656400000000000000000081525060200191505060405180910390fd5b6000600660003373ffffffffffffffffffffffffffffffffffffffff1673ffffffffffffffffffffffffffffffffffffffff1681526020019081526020016000205490506000600660003373ffffffffffffffffffffffffffffffffffffffff1673ffffffffffffffffffffffffffffffffffffffff168152602001908152602001600020819055503373ffffffffffffffffffffffffffffffffffffffff166108fc829081150290604051600060405180830381858888f19350505050610c9c5780600660003373ffffffffffffffffffffffffffffffffffffffff1673ffffffffffffffffffffffffffffffffffffffff168152602001908152602001600020819055505b5050565b6000603c82029050919050565b60066020528060005260406000206000915090505481565b60016000808282540192505081905550565b60005481565b600080610ce86110c4565b1215610cf75760009050610d06565b600454610d026110c4565b1290505b90565b8060018190555050565b600760009054906101000a900460ff1681565b6000806003811115610d3457fe5b600560149054906101000a900460ff166003811115610d4f57fe5b1480610d80575060026003811115610d6357fe5b600560149054906101000a900460ff166003811115610d7e57fe5b145b905090565b60035481565b600560149054906101000a900460ff1681565b6000806003811115610dac57fe5b600560149054906101000a900460ff166003811115610dc757fe5b14610e3a576040517f08c379a000000000000000000000000000000000000000000000000000000000815260040180806020018281038252600d8152602001807f496e76616c69642073746174650000000000000000000000000000000000000081525060200191505060405180910390fd5b610e42610cdd565b610e97576040517f08c379a00000000000000000000000000000000000000000000000000000000081526004018080602001828103825260218152602001806110cf6021913960400191505060405180910390fd5b34600660003373ffffffffffffffffffffffffffffffffffffffff1673ffffffffffffffffffffffffffffffffffffffff1681526020019081526020016000206000828254019250508190555034600860008282540192505081905550610efc610cc5565b60035460085410610f23576001600760006101000a81548160ff0219169083151502179055505b50565b6000670de0b6b3a764000082029050919050565b60085481565b6002806003811115610f4e57fe5b600560149054906101000a900460ff166003811115610f6957fe5b14610fdc576040517f08c379a000000000000000000000000000000000000000000000000000000000815260040180806020018281038252600d8152602001807f496e76616c69642073746174650000000000000000000000000000000000000081525060200191505060405180910390fd5b600560009054906101000a900473ffffffffffffffffffffffffffffffffffffffff1673ffffffffffffffffffffffffffffffffffffffff166108fc6008549081150290604051600060405180830381858888f1935050505015611063576003600560146101000a81548160ff0219169083600381111561105957fe5b0217905550611088565b6001600560146101000a81548160ff0219169083600381111561108257fe5b02179055505b50565b600060038081111561109957fe5b600560149054906101000a900460ff1660038111156110b457fe5b14905090565b6000600854905090565b600060015490509056fe4e6f20636f6e747269627574696f6e73206166746572206120646561646c696e65a264697066735822122052a711a958a2e90e7068fa3d4e2668a4d6c358f84ae85d93292abf713c2007ba64736f6c63430006000033",
  "source": "\r\ncontract CrowdFundingWithDeadline {\r\n\r\n\r\n    enum State { Ongoing, Failed, Succeeded, PaidOut }\r\n    event CampaignFinished(\r\n        address addr,\r\n        uint totalCollected,\r\n        bool succeeded\r\n    );\r\n    \r\n    uint public counter = 0;\r\n    int time;\r\n    string public name;\r\n    uint public targetAmount;\r\n    int public campaignDeadline;\r\n    address public beneficiary;\r\n    State public state;\r\n    mapping(address => uint) public amounts;\r\n    bool public collected;\r\n    uint public totalCollected;\r\n\r\n    modifier inState(State expectedState) {\r\n        require(state == expectedState, \"Invalid state\");\r\n        _;\r\n    }\r\n\r\n    constructor(\r\n        string memory campaignName,\r\n        uint targetAmountEth,\r\n        int durationInMin,\r\n        address beneficiaryAddress\r\n    )\r\n        public\r\n    {\r\n        name = campaignName;\r\n        targetAmount = targetAmountEth * 1 ether;\r\n        campaignDeadline = durationInMin;\r\n        beneficiary = beneficiaryAddress;\r\n        state = State.Ongoing;\r\n    }\r\n\r\n    function contribute() public payable inState(State.Ongoing) {\r\n        require(beforeDeadline(), \"No contributions after a deadline\");\r\n        amounts[msg.sender] += msg.value;\r\n        totalCollected += msg.value;\r\n        incrementCounter();\r\n\r\n        if (totalCollected >= targetAmount) {\r\n            collected = true;\r\n        }\r\n    }\r\n\r\n    function finishCrowdFunding() public inState(State.Ongoing) {\r\n        if(currentTime() < campaignDeadline && currentTime() > 0){\r\n\r\n            if (!collected) {\r\n                state = State.Failed;\r\n            } else {\r\n                state = State.Succeeded;\r\n            }\r\n        }\r\n        else{\r\n            state = State.Failed;\r\n        }\r\n\r\n        emit CampaignFinished(address(this), totalCollected, collected);\r\n    }\r\n\r\n    function collect() public inState(State.Succeeded) {\r\n        if (payable(beneficiary).send(totalCollected)) {\r\n            state = State.PaidOut;\r\n        } else {\r\n            state = State.Failed;\r\n        }\r\n    }\r\n\r\n    function withdraw() public inState(State.Failed) {\r\n        require(amounts[msg.sender] > 0, \"Nothing was contributed\");\r\n        uint contributed = amounts[msg.sender];\r\n        amounts[msg.sender] = 0;\r\n\r\n        if (!payable(msg.sender).send(contributed)) {\r\n            amounts[msg.sender] = contributed;\r\n        }\r\n    }\r\n\r\n    function beforeDeadline() public view returns(bool) {\r\n        if(currentTime() < 0){\r\n            return false;\r\n        }\r\n      \r\n        return currentTime() < campaignDeadline;\r\n    }\r\n\r\n     function currentTime() internal view returns(int) {\r\n        return time;\r\n    }\r\n\r\n    function setCurrentTime(int newTime) public {\r\n        time = newTime;\r\n    }\r\n\r\n    function getTotalCollected() public view returns(uint) {\r\n        return totalCollected;\r\n    }\r\n\r\n    function inProgress() public view returns (bool) {\r\n        return state == State.Ongoing || state == State.Succeeded;\r\n    }\r\n\r\n    function isSuccessful() public view returns (bool) {\r\n        return state == State.PaidOut;\r\n    }\r\n    function etherToWei(uint sumInEth) public pure returns(uint) {\r\n        return sumInEth * 1 ether;\r\n    }\r\n\r\n    function minutesToSeconds(uint timeInMin) public pure returns(uint) {\r\n        return timeInMin * 1 minutes;\r\n    }\r\n    function incrementCounter() public {\r\n        counter += 1;\r\n    }\r\n    function getBackers() public view returns (uint) {\r\n        return counter;\r\n    }\r\n     function getCampaign() public view returns \r\n    (\r\n        string memory campaignName,\r\n        uint targetAmountEth,\r\n        address beneficiaryAddress,\r\n        uint totalCollect,\r\n        State currentState\r\n     \r\n    ) {\r\n        campaignName = name;\r\n        targetAmountEth = targetAmount;\r\n        beneficiaryAddress = beneficiary;\r\n        totalCollect = totalCollected;\r\n        currentState = state;\r\n    }\r\n\r\n}\r\n\r\n\r\n       \r\n\r\n\r\n",
  "sourcePath": "C:\\Users\\ErtugrulSen\\Desktop\\DFX\\Hackhathon 2022 - BlockChain\\CrowdFundingWithDeadline\\contracts\\CrowdFundingWithDeadline.sol",
  "compiler": {
    "name": "solc",
    "version": "0.6.0+commit.26b70077.Emscripten.clang"
  },
  "schemaVersion": "3.4.7",
  "updatedAt": "2022-06-25T19:17:53.949Z",
  "networkType": "ethereum",
  "devdoc": {
    "methods": {}
  },
  "userdoc": {
    "methods": {}
  }
}