{
  "contractName": "CrowdFundingWithDeadline",
  "abi": [
    {
      "inputs": [
        {
          "internalType": "string",
          "name": "campaignName",
          "type": "string"
        },
        {
          "internalType": "uint256",
          "name": "targetAmountEth",
          "type": "uint256"
        },
        {
          "internalType": "uint256",
          "name": "durationInMin",
          "type": "uint256"
        },
        {
          "internalType": "address",
          "name": "beneficiaryAddress",
          "type": "address"
        }
      ],
      "stateMutability": "nonpayable",
      "type": "constructor"
    },
    {
      "inputs": [
        {
          "internalType": "address",
          "name": "",
          "type": "address"
        }
      ],
      "name": "amounts",
      "outputs": [
        {
          "internalType": "uint256",
          "name": "",
          "type": "uint256"
        }
      ],
      "stateMutability": "view",
      "type": "function",
      "constant": true
    },
    {
      "inputs": [],
      "name": "beneficiary",
      "outputs": [
        {
          "internalType": "address",
          "name": "",
          "type": "address"
        }
      ],
      "stateMutability": "view",
      "type": "function",
      "constant": true
    },
    {
      "inputs": [],
      "name": "collected",
      "outputs": [
        {
          "internalType": "bool",
          "name": "",
          "type": "bool"
        }
      ],
      "stateMutability": "view",
      "type": "function",
      "constant": true
    },
    {
      "inputs": [],
      "name": "fundingDeadline",
      "outputs": [
        {
          "internalType": "uint256",
          "name": "",
          "type": "uint256"
        }
      ],
      "stateMutability": "view",
      "type": "function",
      "constant": true
    },
    {
      "inputs": [],
      "name": "name",
      "outputs": [
        {
          "internalType": "string",
          "name": "",
          "type": "string"
        }
      ],
      "stateMutability": "view",
      "type": "function",
      "constant": true
    },
    {
      "inputs": [],
      "name": "state",
      "outputs": [
        {
          "internalType": "enum CrowdFundingWithDeadline.State",
          "name": "",
          "type": "uint8"
        }
      ],
      "stateMutability": "view",
      "type": "function",
      "constant": true
    },
    {
      "inputs": [],
      "name": "targetAmount",
      "outputs": [
        {
          "internalType": "uint256",
          "name": "",
          "type": "uint256"
        }
      ],
      "stateMutability": "view",
      "type": "function",
      "constant": true
    },
    {
      "inputs": [],
      "name": "totalCollected",
      "outputs": [
        {
          "internalType": "uint256",
          "name": "",
          "type": "uint256"
        }
      ],
      "stateMutability": "view",
      "type": "function",
      "constant": true
    },
    {
      "inputs": [],
      "name": "contribute",
      "outputs": [],
      "stateMutability": "payable",
      "type": "function",
      "payable": true
    },
    {
      "inputs": [],
      "name": "finishCrowdFunding",
      "outputs": [],
      "stateMutability": "nonpayable",
      "type": "function"
    },
    {
      "inputs": [],
      "name": "collect",
      "outputs": [],
      "stateMutability": "nonpayable",
      "type": "function"
    },
    {
      "inputs": [],
      "name": "withdraw",
      "outputs": [],
      "stateMutability": "nonpayable",
      "type": "function"
    },
    {
      "inputs": [],
      "name": "beforeDeadline",
      "outputs": [
        {
          "internalType": "bool",
          "name": "",
          "type": "bool"
        }
      ],
      "stateMutability": "view",
      "type": "function",
      "constant": true
    },
    {
      "inputs": [
        {
          "internalType": "uint256",
          "name": "newTime",
          "type": "uint256"
        }
      ],
      "name": "setCurrentTime",
      "outputs": [],
      "stateMutability": "nonpayable",
      "type": "function"
    },
    {
      "inputs": [],
      "name": "getTotalCollected",
      "outputs": [
        {
          "internalType": "uint256",
          "name": "",
          "type": "uint256"
        }
      ],
      "stateMutability": "view",
      "type": "function",
      "constant": true
    },
    {
      "inputs": [],
      "name": "inProgress",
      "outputs": [
        {
          "internalType": "bool",
          "name": "",
          "type": "bool"
        }
      ],
      "stateMutability": "view",
      "type": "function",
      "constant": true
    },
    {
      "inputs": [],
      "name": "isSuccessful",
      "outputs": [
        {
          "internalType": "bool",
          "name": "",
          "type": "bool"
        }
      ],
      "stateMutability": "view",
      "type": "function",
      "constant": true
    }
  ],
  "bytecode": "0x60806040523480156200001157600080fd5b5060405162000fe738038062000fe7833981810160405260808110156200003757600080fd5b81019080805160405193929190846401000000008211156200005857600080fd5b838201915060208201858111156200006f57600080fd5b82518660018202830111640100000000821117156200008d57600080fd5b8083526020830192505050908051906020019080838360005b83811015620000c3578082015181840152602081019050620000a6565b50505050905090810190601f168015620000f15780820380516001836020036101000a031916815260200191505b50604052602001805190602001909291908051906020019092919080519060200190929190505050836001908051906020019062000131929190620001d7565b50670de0b6b3a76400008302600281905550603c820262000157620001ce60201b60201c565b0160038190555080600460006101000a81548173ffffffffffffffffffffffffffffffffffffffff021916908373ffffffffffffffffffffffffffffffffffffffff1602179055506000600460146101000a81548160ff02191690836003811115620001bf57fe5b02179055505050505062000286565b60008054905090565b828054600181600116156101000203166002900490600052602060002090601f016020900481019282601f106200021a57805160ff19168380011785556200024b565b828001600101855582156200024b579182015b828111156200024a5782518255916020019190600101906200022d565b5b5090506200025a91906200025e565b5090565b6200028391905b808211156200027f57600081600090555060010162000265565b5090565b90565b610d5180620002966000396000f3fe6080604052600436106100fe5760003560e01c806384bcefd411610095578063d7bb99ba11610064578063d7bb99ba146103d4578063e29eb836146103de578063e522538114610409578063ec4cd0cf14610420578063fbe5d87e1461044f576100fe565b806384bcefd4146103125780638735181314610341578063953b8fb814610370578063c19d93fb1461039b576100fe565b80633ccfd60b116100d15780633ccfd60b1461023c57806355a3b2c11461025357806368bc0041146102b8578063796b23bb146102e7576100fe565b806306fdde0314610103578063083dca111461019357806322f8e566146101aa57806338af3eed146101e5575b600080fd5b34801561010f57600080fd5b5061011861047a565b6040518080602001828103825283818151815260200191508051906020019080838360005b8381101561015857808201518184015260208101905061013d565b50505050905090810190601f1680156101855780820380516001836020036101000a031916815260200191505b509250505060405180910390f35b34801561019f57600080fd5b506101a8610518565b005b3480156101b657600080fd5b506101e3600480360360208110156101cd57600080fd5b8101908080359060200190929190505050610677565b005b3480156101f157600080fd5b506101fa610681565b604051808273ffffffffffffffffffffffffffffffffffffffff1673ffffffffffffffffffffffffffffffffffffffff16815260200191505060405180910390f35b34801561024857600080fd5b506102516106a7565b005b34801561025f57600080fd5b506102a26004803603602081101561027657600080fd5b81019080803573ffffffffffffffffffffffffffffffffffffffff169060200190929190505050610903565b6040518082815260200191505060405180910390f35b3480156102c457600080fd5b506102cd61091b565b604051808215151515815260200191505060405180910390f35b3480156102f357600080fd5b506102fc61092e565b6040518082815260200191505060405180910390f35b34801561031e57600080fd5b50610327610934565b604051808215151515815260200191505060405180910390f35b34801561034d57600080fd5b50610356610947565b604051808215151515815260200191505060405180910390f35b34801561037c57600080fd5b506103856109a6565b6040518082815260200191505060405180910390f35b3480156103a757600080fd5b506103b06109ac565b604051808260038111156103c057fe5b60ff16815260200191505060405180910390f35b6103dc6109bf565b005b3480156103ea57600080fd5b506103f3610b3f565b6040518082815260200191505060405180910390f35b34801561041557600080fd5b5061041e610b45565b005b34801561042c57600080fd5b50610435610c90565b604051808215151515815260200191505060405180910390f35b34801561045b57600080fd5b50610464610cbf565b6040518082815260200191505060405180910390f35b60018054600181600116156101000203166002900480601f0160208091040260200160405190810160405280929190818152602001828054600181600116156101000203166002900480156105105780601f106104e557610100808354040283529160200191610510565b820191906000526020600020905b8154815290600101906020018083116104f357829003601f168201915b505050505081565b600080600381111561052657fe5b600460149054906101000a900460ff16600381111561054157fe5b146105b4576040517f08c379a000000000000000000000000000000000000000000000000000000000815260040180806020018281038252600d8152602001807f496e76616c69642073746174650000000000000000000000000000000000000081525060200191505060405180910390fd5b6105bc61091b565b15610612576040517f08c379a0000000000000000000000000000000000000000000000000000000008152600401808060200182810382526028815260200180610cf46028913960400191505060405180910390fd5b600660009054906101000a900460ff1661064f576001600460146101000a81548160ff0219169083600381111561064557fe5b0217905550610674565b6002600460146101000a81548160ff0219169083600381111561066e57fe5b02179055505b50565b8060008190555050565b600460009054906101000a900473ffffffffffffffffffffffffffffffffffffffff1681565b60018060038111156106b557fe5b600460149054906101000a900460ff1660038111156106d057fe5b14610743576040517f08c379a000000000000000000000000000000000000000000000000000000000815260040180806020018281038252600d8152602001807f496e76616c69642073746174650000000000000000000000000000000000000081525060200191505060405180910390fd5b6000600560003373ffffffffffffffffffffffffffffffffffffffff1673ffffffffffffffffffffffffffffffffffffffff16815260200190815260200160002054116107f8576040517f08c379a00000000000000000000000000000000000000000000000000000000081526004018080602001828103825260178152602001807f4e6f7468696e672077617320636f6e747269627574656400000000000000000081525060200191505060405180910390fd5b6000600560003373ffffffffffffffffffffffffffffffffffffffff1673ffffffffffffffffffffffffffffffffffffffff1681526020019081526020016000205490506000600560003373ffffffffffffffffffffffffffffffffffffffff1673ffffffffffffffffffffffffffffffffffffffff168152602001908152602001600020819055503373ffffffffffffffffffffffffffffffffffffffff166108fc829081150290604051600060405180830381858888f193505050506108ff5780600560003373ffffffffffffffffffffffffffffffffffffffff1673ffffffffffffffffffffffffffffffffffffffff168152602001908152602001600020819055505b5050565b60056020528060005260406000206000915090505481565b6000600354610928610cc9565b10905090565b60035481565b600660009054906101000a900460ff1681565b600080600381111561095557fe5b600460149054906101000a900460ff16600381111561097057fe5b14806109a157506002600381111561098457fe5b600460149054906101000a900460ff16600381111561099f57fe5b145b905090565b60025481565b600460149054906101000a900460ff1681565b60008060038111156109cd57fe5b600460149054906101000a900460ff1660038111156109e857fe5b14610a5b576040517f08c379a000000000000000000000000000000000000000000000000000000000815260040180806020018281038252600d8152602001807f496e76616c69642073746174650000000000000000000000000000000000000081525060200191505060405180910390fd5b610a6361091b565b610ab8576040517f08c379a0000000000000000000000000000000000000000000000000000000008152600401808060200182810382526021815260200180610cd36021913960400191505060405180910390fd5b34600560003373ffffffffffffffffffffffffffffffffffffffff1673ffffffffffffffffffffffffffffffffffffffff168152602001908152602001600020600082825401925050819055503460076000828254019250508190555060025460075410610b3c576001600660006101000a81548160ff0219169083151502179055505b50565b60075481565b6002806003811115610b5357fe5b600460149054906101000a900460ff166003811115610b6e57fe5b14610be1576040517f08c379a000000000000000000000000000000000000000000000000000000000815260040180806020018281038252600d8152602001807f496e76616c69642073746174650000000000000000000000000000000000000081525060200191505060405180910390fd5b600460009054906101000a900473ffffffffffffffffffffffffffffffffffffffff1673ffffffffffffffffffffffffffffffffffffffff166108fc6007549081150290604051600060405180830381858888f1935050505015610c68576003600460146101000a81548160ff02191690836003811115610c5e57fe5b0217905550610c8d565b6001600460146101000a81548160ff02191690836003811115610c8757fe5b02179055505b50565b6000600380811115610c9e57fe5b600460149054906101000a900460ff166003811115610cb957fe5b14905090565b6000600754905090565b6000805490509056fe4e6f20636f6e747269627574696f6e73206166746572206120646561646c696e6543616e6e6f742066696e6973682063616d706169676e206265666f7265206120646561646c696e65a264697066735822122039eddb9d3a263734df6189ff1f4ea51f0e5c3049e66f44d2ed1d9ef354428f2564736f6c63430006000033",
  "source": "\r\ncontract CrowdFundingWithDeadline {\r\n\r\n\r\n    enum State { Ongoing, Failed, Succeeded, PaidOut }\r\n\r\n    \r\n    uint time;\r\n    string public name;\r\n    uint public targetAmount;\r\n    uint public fundingDeadline;\r\n    address public beneficiary;\r\n    State public state;\r\n    mapping(address => uint) public amounts;\r\n    bool public collected;\r\n    uint public totalCollected;\r\n\r\n    modifier inState(State expectedState) {\r\n        require(state == expectedState, \"Invalid state\");\r\n        _;\r\n    }\r\n\r\n    constructor(\r\n        string memory campaignName,\r\n        uint targetAmountEth,\r\n        uint durationInMin,\r\n        address beneficiaryAddress\r\n    )\r\n        public\r\n    {\r\n        name = campaignName;\r\n        targetAmount = targetAmountEth * 1 ether;\r\n        fundingDeadline = currentTime() + durationInMin * 1 minutes;\r\n        beneficiary = beneficiaryAddress;\r\n        state = State.Ongoing;\r\n    }\r\n\r\n    function contribute() public payable inState(State.Ongoing) {\r\n        require(beforeDeadline(), \"No contributions after a deadline\");\r\n        amounts[msg.sender] += msg.value;\r\n        totalCollected += msg.value;\r\n\r\n        if (totalCollected >= targetAmount) {\r\n            collected = true;\r\n        }\r\n    }\r\n\r\n    function finishCrowdFunding() public inState(State.Ongoing) {\r\n        require(!beforeDeadline(), \"Cannot finish campaign before a deadline\");\r\n\r\n        if (!collected) {\r\n            state = State.Failed;\r\n        } else {\r\n            state = State.Succeeded;\r\n        }\r\n\r\n       // emit CampaignFinished(address(this), totalCollected, collected);\r\n    }\r\n\r\n    function collect() public inState(State.Succeeded) {\r\n        if (payable(beneficiary).send(totalCollected)) {\r\n            state = State.PaidOut;\r\n        } else {\r\n            state = State.Failed;\r\n        }\r\n    }\r\n\r\n    function withdraw() public inState(State.Failed) {\r\n        require(amounts[msg.sender] > 0, \"Nothing was contributed\");\r\n        uint contributed = amounts[msg.sender];\r\n        amounts[msg.sender] = 0;\r\n\r\n        if (!payable(msg.sender).send(contributed)) {\r\n            amounts[msg.sender] = contributed;\r\n        }\r\n    }\r\n\r\n    function beforeDeadline() public view returns(bool) {\r\n        return currentTime() < fundingDeadline;\r\n    }\r\n\r\n     function currentTime() internal view returns(uint) {\r\n        return time;\r\n    }\r\n\r\n    function setCurrentTime(uint newTime) public {\r\n        time = newTime;\r\n    }\r\n\r\n    function getTotalCollected() public view returns(uint) {\r\n        return totalCollected;\r\n    }\r\n\r\n    function inProgress() public view returns (bool) {\r\n        return state == State.Ongoing || state == State.Succeeded;\r\n    }\r\n\r\n    function isSuccessful() public view returns (bool) {\r\n        return state == State.PaidOut;\r\n    }\r\n\r\n}",
  "sourcePath": "C:\\Users\\ErtugrulSen\\Desktop\\DFX\\Hackhathon 2022 - BlockChain\\CrowdFundingWithDeadline\\contracts\\CrowdFundingWithDeadline.sol",
  "compiler": {
    "name": "solc",
    "version": "0.6.0+commit.26b70077.Emscripten.clang"
  },
  "schemaVersion": "3.4.7",
  "updatedAt": "2022-06-05T19:26:48.915Z",
  "networkType": "ethereum",
  "devdoc": {
    "methods": {}
  },
  "userdoc": {
    "methods": {}
  }
}