{
  "contractName": "CrowdFundingWithDeadline",
  "abi": [
    {
      "inputs": [
        {
          "internalType": "string",
          "name": "campaignName",
          "type": "string"
        },
        {
          "internalType": "uint256",
          "name": "targetAmountEth",
          "type": "uint256"
        },
        {
          "internalType": "uint256",
          "name": "durationInMin",
          "type": "uint256"
        },
        {
          "internalType": "address",
          "name": "beneficiaryAddress",
          "type": "address"
        }
      ],
      "stateMutability": "nonpayable",
      "type": "constructor"
    },
    {
      "anonymous": false,
      "inputs": [
        {
          "indexed": false,
          "internalType": "address",
          "name": "addr",
          "type": "address"
        },
        {
          "indexed": false,
          "internalType": "uint256",
          "name": "totalCollected",
          "type": "uint256"
        },
        {
          "indexed": false,
          "internalType": "bool",
          "name": "succeeded",
          "type": "bool"
        }
      ],
      "name": "CampaignFinished",
      "type": "event"
    },
    {
      "inputs": [
        {
          "internalType": "address",
          "name": "",
          "type": "address"
        }
      ],
      "name": "amounts",
      "outputs": [
        {
          "internalType": "uint256",
          "name": "",
          "type": "uint256"
        }
      ],
      "stateMutability": "view",
      "type": "function",
      "constant": true
    },
    {
      "inputs": [],
      "name": "beneficiary",
      "outputs": [
        {
          "internalType": "address",
          "name": "",
          "type": "address"
        }
      ],
      "stateMutability": "view",
      "type": "function",
      "constant": true
    },
    {
      "inputs": [],
      "name": "campaignDeadline",
      "outputs": [
        {
          "internalType": "uint256",
          "name": "",
          "type": "uint256"
        }
      ],
      "stateMutability": "view",
      "type": "function",
      "constant": true
    },
    {
      "inputs": [],
      "name": "collected",
      "outputs": [
        {
          "internalType": "bool",
          "name": "",
          "type": "bool"
        }
      ],
      "stateMutability": "view",
      "type": "function",
      "constant": true
    },
    {
      "inputs": [],
      "name": "counter",
      "outputs": [
        {
          "internalType": "uint256",
          "name": "",
          "type": "uint256"
        }
      ],
      "stateMutability": "view",
      "type": "function",
      "constant": true
    },
    {
      "inputs": [],
      "name": "name",
      "outputs": [
        {
          "internalType": "string",
          "name": "",
          "type": "string"
        }
      ],
      "stateMutability": "view",
      "type": "function",
      "constant": true
    },
    {
      "inputs": [],
      "name": "state",
      "outputs": [
        {
          "internalType": "enum CrowdFundingWithDeadline.State",
          "name": "",
          "type": "uint8"
        }
      ],
      "stateMutability": "view",
      "type": "function",
      "constant": true
    },
    {
      "inputs": [],
      "name": "targetAmount",
      "outputs": [
        {
          "internalType": "uint256",
          "name": "",
          "type": "uint256"
        }
      ],
      "stateMutability": "view",
      "type": "function",
      "constant": true
    },
    {
      "inputs": [],
      "name": "totalCollected",
      "outputs": [
        {
          "internalType": "uint256",
          "name": "",
          "type": "uint256"
        }
      ],
      "stateMutability": "view",
      "type": "function",
      "constant": true
    },
    {
      "inputs": [],
      "name": "contribute",
      "outputs": [],
      "stateMutability": "payable",
      "type": "function",
      "payable": true
    },
    {
      "inputs": [],
      "name": "finishCrowdFunding",
      "outputs": [],
      "stateMutability": "nonpayable",
      "type": "function"
    },
    {
      "inputs": [],
      "name": "collect",
      "outputs": [],
      "stateMutability": "nonpayable",
      "type": "function"
    },
    {
      "inputs": [],
      "name": "withdraw",
      "outputs": [],
      "stateMutability": "nonpayable",
      "type": "function"
    },
    {
      "inputs": [],
      "name": "beforeDeadline",
      "outputs": [
        {
          "internalType": "bool",
          "name": "",
          "type": "bool"
        }
      ],
      "stateMutability": "view",
      "type": "function",
      "constant": true
    },
    {
      "inputs": [
        {
          "internalType": "uint256",
          "name": "newTime",
          "type": "uint256"
        }
      ],
      "name": "setCurrentTime",
      "outputs": [],
      "stateMutability": "nonpayable",
      "type": "function"
    },
    {
      "inputs": [],
      "name": "getTotalCollected",
      "outputs": [
        {
          "internalType": "uint256",
          "name": "",
          "type": "uint256"
        }
      ],
      "stateMutability": "view",
      "type": "function",
      "constant": true
    },
    {
      "inputs": [],
      "name": "inProgress",
      "outputs": [
        {
          "internalType": "bool",
          "name": "",
          "type": "bool"
        }
      ],
      "stateMutability": "view",
      "type": "function",
      "constant": true
    },
    {
      "inputs": [],
      "name": "isSuccessful",
      "outputs": [
        {
          "internalType": "bool",
          "name": "",
          "type": "bool"
        }
      ],
      "stateMutability": "view",
      "type": "function",
      "constant": true
    },
    {
      "inputs": [],
      "name": "getCampaign",
      "outputs": [
        {
          "internalType": "string",
          "name": "campaignName",
          "type": "string"
        },
        {
          "internalType": "uint256",
          "name": "targetAmountEth",
          "type": "uint256"
        },
        {
          "internalType": "uint256",
          "name": "durationInMin",
          "type": "uint256"
        },
        {
          "internalType": "address",
          "name": "beneficiaryAddress",
          "type": "address"
        },
        {
          "internalType": "uint256",
          "name": "totalCollect",
          "type": "uint256"
        }
      ],
      "stateMutability": "view",
      "type": "function",
      "constant": true
    },
    {
      "inputs": [
        {
          "internalType": "uint256",
          "name": "sumInEth",
          "type": "uint256"
        }
      ],
      "name": "etherToWei",
      "outputs": [
        {
          "internalType": "uint256",
          "name": "",
          "type": "uint256"
        }
      ],
      "stateMutability": "pure",
      "type": "function",
      "constant": true
    },
    {
      "inputs": [
        {
          "internalType": "uint256",
          "name": "timeInMin",
          "type": "uint256"
        }
      ],
      "name": "minutesToSeconds",
      "outputs": [
        {
          "internalType": "uint256",
          "name": "",
          "type": "uint256"
        }
      ],
      "stateMutability": "pure",
      "type": "function",
      "constant": true
    },
    {
      "inputs": [],
      "name": "incrementCounter",
      "outputs": [],
      "stateMutability": "nonpayable",
      "type": "function"
    },
    {
      "inputs": [],
      "name": "getBackers",
      "outputs": [
        {
          "internalType": "uint256",
          "name": "",
          "type": "uint256"
        }
      ],
      "stateMutability": "view",
      "type": "function",
      "constant": true
    }
  ],
  "bytecode": "0x6080604052600080553480156200001557600080fd5b50604051620013de380380620013de833981810160405260808110156200003b57600080fd5b81019080805160405193929190846401000000008211156200005c57600080fd5b838201915060208201858111156200007357600080fd5b82518660018202830111640100000000821117156200009157600080fd5b8083526020830192505050908051906020019080838360005b83811015620000c7578082015181840152602081019050620000aa565b50505050905090810190601f168015620000f55780820380516001836020036101000a031916815260200191505b50604052602001805190602001909291908051906020019092919080519060200190929190505050836002908051906020019062000135929190620001f6565b50670de0b6b3a764000083026003819055506200015882620001df60201b60201c565b62000168620001ec60201b60201c565b0160048190555080600560006101000a81548173ffffffffffffffffffffffffffffffffffffffff021916908373ffffffffffffffffffffffffffffffffffffffff1602179055506000600560146101000a81548160ff02191690836003811115620001d057fe5b021790555050505050620002a5565b6000603c82029050919050565b6000600154905090565b828054600181600116156101000203166002900490600052602060002090601f016020900481019282601f106200023957805160ff19168380011785556200026a565b828001600101855582156200026a579182015b82811115620002695782518255916020019190600101906200024c565b5b5090506200027991906200027d565b5090565b620002a291905b808211156200029e57600081600090555060010162000284565b5090565b90565b61112980620002b56000396000f3fe6080604052600436106101405760003560e01c806361bc221a116100b6578063d7bb99ba1161006f578063d7bb99ba146105aa578063d8916bb9146105b4578063e29eb83614610603578063e52253811461062e578063ec4cd0cf14610645578063fbe5d87e1461067457610140565b806361bc221a1461048e57806368bc0041146104b957806384bcefd4146104e85780638735181314610517578063953b8fb814610546578063c19d93fb1461057157610140565b806330f3e3da1161010857806330f3e3da1461032a57806338af3eed146103555780633ccfd60b146103ac578063529b380f146103c357806355a3b2c1146104125780635b34b9661461047757610140565b806306fdde0314610145578063083dca11146101d55780631d6f8223146101ec57806322f8e56614610217578063236b8e3a14610252575b600080fd5b34801561015157600080fd5b5061015a61069f565b6040518080602001828103825283818151815260200191508051906020019080838360005b8381101561019a57808201518184015260208101905061017f565b50505050905090810190601f1680156101c75780820380516001836020036101000a031916815260200191505b509250505060405180910390f35b3480156101e157600080fd5b506101ea61073d565b005b3480156101f857600080fd5b50610201610924565b6040518082815260200191505060405180910390f35b34801561022357600080fd5b506102506004803603602081101561023a57600080fd5b810190808035906020019092919050505061092a565b005b34801561025e57600080fd5b50610267610934565b60405180806020018681526020018581526020018473ffffffffffffffffffffffffffffffffffffffff1673ffffffffffffffffffffffffffffffffffffffff168152602001838152602001828103825287818151815260200191508051906020019080838360005b838110156102eb5780820151818401526020810190506102d0565b50505050905090810190601f1680156103185780820380516001836020036101000a031916815260200191505b50965050505050505060405180910390f35b34801561033657600080fd5b5061033f610a14565b6040518082815260200191505060405180910390f35b34801561036157600080fd5b5061036a610a1d565b604051808273ffffffffffffffffffffffffffffffffffffffff1673ffffffffffffffffffffffffffffffffffffffff16815260200191505060405180910390f35b3480156103b857600080fd5b506103c1610a43565b005b3480156103cf57600080fd5b506103fc600480360360208110156103e657600080fd5b8101908080359060200190929190505050610c9f565b6040518082815260200191505060405180910390f35b34801561041e57600080fd5b506104616004803603602081101561043557600080fd5b81019080803573ffffffffffffffffffffffffffffffffffffffff169060200190929190505050610cac565b6040518082815260200191505060405180910390f35b34801561048357600080fd5b5061048c610cc4565b005b34801561049a57600080fd5b506104a3610cd6565b6040518082815260200191505060405180910390f35b3480156104c557600080fd5b506104ce610cdc565b604051808215151515815260200191505060405180910390f35b3480156104f457600080fd5b506104fd610cef565b604051808215151515815260200191505060405180910390f35b34801561052357600080fd5b5061052c610d02565b604051808215151515815260200191505060405180910390f35b34801561055257600080fd5b5061055b610d61565b6040518082815260200191505060405180910390f35b34801561057d57600080fd5b50610586610d67565b6040518082600381111561059657fe5b60ff16815260200191505060405180910390f35b6105b2610d7a565b005b3480156105c057600080fd5b506105ed600480360360208110156105d757600080fd5b8101908080359060200190929190505050610f02565b6040518082815260200191505060405180910390f35b34801561060f57600080fd5b50610618610f16565b6040518082815260200191505060405180910390f35b34801561063a57600080fd5b50610643610f1c565b005b34801561065157600080fd5b5061065a611067565b604051808215151515815260200191505060405180910390f35b34801561068057600080fd5b50610689611096565b6040518082815260200191505060405180910390f35b60028054600181600116156101000203166002900480601f0160208091040260200160405190810160405280929190818152602001828054600181600116156101000203166002900480156107355780601f1061070a57610100808354040283529160200191610735565b820191906000526020600020905b81548152906001019060200180831161071857829003601f168201915b505050505081565b600080600381111561074b57fe5b600560149054906101000a900460ff16600381111561076657fe5b146107d9576040517f08c379a000000000000000000000000000000000000000000000000000000000815260040180806020018281038252600d8152602001807f496e76616c69642073746174650000000000000000000000000000000000000081525060200191505060405180910390fd5b6107e1610cdc565b15610837576040517f08c379a00000000000000000000000000000000000000000000000000000000081526004018080602001828103825260288152602001806110cc6028913960400191505060405180910390fd5b600760009054906101000a900460ff16610874576001600560146101000a81548160ff0219169083600381111561086a57fe5b0217905550610899565b6002600560146101000a81548160ff0219169083600381111561089357fe5b02179055505b7f6fa7e87ebbd87ed4f1c40bba63144f68fd2bb022fb748ab3b61b5411c39bd47430600854600760009054906101000a900460ff16604051808473ffffffffffffffffffffffffffffffffffffffff1673ffffffffffffffffffffffffffffffffffffffff16815260200183815260200182151515158152602001935050505060405180910390a150565b60045481565b8060018190555050565b606060008060008060028054600181600116156101000203166002900480601f0160208091040260200160405190810160405280929190818152602001828054600181600116156101000203166002900480156109d25780601f106109a7576101008083540402835291602001916109d2565b820191906000526020600020905b8154815290600101906020018083116109b557829003601f168201915b5050505050945060035493506004549250600560009054906101000a900473ffffffffffffffffffffffffffffffffffffffff16915060085490509091929394565b60008054905090565b600560009054906101000a900473ffffffffffffffffffffffffffffffffffffffff1681565b6001806003811115610a5157fe5b600560149054906101000a900460ff166003811115610a6c57fe5b14610adf576040517f08c379a000000000000000000000000000000000000000000000000000000000815260040180806020018281038252600d8152602001807f496e76616c69642073746174650000000000000000000000000000000000000081525060200191505060405180910390fd5b6000600660003373ffffffffffffffffffffffffffffffffffffffff1673ffffffffffffffffffffffffffffffffffffffff1681526020019081526020016000205411610b94576040517f08c379a00000000000000000000000000000000000000000000000000000000081526004018080602001828103825260178152602001807f4e6f7468696e672077617320636f6e747269627574656400000000000000000081525060200191505060405180910390fd5b6000600660003373ffffffffffffffffffffffffffffffffffffffff1673ffffffffffffffffffffffffffffffffffffffff1681526020019081526020016000205490506000600660003373ffffffffffffffffffffffffffffffffffffffff1673ffffffffffffffffffffffffffffffffffffffff168152602001908152602001600020819055503373ffffffffffffffffffffffffffffffffffffffff166108fc829081150290604051600060405180830381858888f19350505050610c9b5780600660003373ffffffffffffffffffffffffffffffffffffffff1673ffffffffffffffffffffffffffffffffffffffff168152602001908152602001600020819055505b5050565b6000603c82029050919050565b60066020528060005260406000206000915090505481565b60016000808282540192505081905550565b60005481565b6000600454610ce96110a0565b10905090565b600760009054906101000a900460ff1681565b6000806003811115610d1057fe5b600560149054906101000a900460ff166003811115610d2b57fe5b1480610d5c575060026003811115610d3f57fe5b600560149054906101000a900460ff166003811115610d5a57fe5b145b905090565b60035481565b600560149054906101000a900460ff1681565b6000806003811115610d8857fe5b600560149054906101000a900460ff166003811115610da357fe5b14610e16576040517f08c379a000000000000000000000000000000000000000000000000000000000815260040180806020018281038252600d8152602001807f496e76616c69642073746174650000000000000000000000000000000000000081525060200191505060405180910390fd5b610e1e610cdc565b610e73576040517f08c379a00000000000000000000000000000000000000000000000000000000081526004018080602001828103825260218152602001806110ab6021913960400191505060405180910390fd5b34600660003373ffffffffffffffffffffffffffffffffffffffff1673ffffffffffffffffffffffffffffffffffffffff16815260200190815260200160002060008282540192505081905550610ec8610cc4565b3460086000828254019250508190555060035460085410610eff576001600760006101000a81548160ff0219169083151502179055505b50565b6000670de0b6b3a764000082029050919050565b60085481565b6002806003811115610f2a57fe5b600560149054906101000a900460ff166003811115610f4557fe5b14610fb8576040517f08c379a000000000000000000000000000000000000000000000000000000000815260040180806020018281038252600d8152602001807f496e76616c69642073746174650000000000000000000000000000000000000081525060200191505060405180910390fd5b600560009054906101000a900473ffffffffffffffffffffffffffffffffffffffff1673ffffffffffffffffffffffffffffffffffffffff166108fc6008549081150290604051600060405180830381858888f193505050501561103f576003600560146101000a81548160ff0219169083600381111561103557fe5b0217905550611064565b6001600560146101000a81548160ff0219169083600381111561105e57fe5b02179055505b50565b600060038081111561107557fe5b600560149054906101000a900460ff16600381111561109057fe5b14905090565b6000600854905090565b600060015490509056fe4e6f20636f6e747269627574696f6e73206166746572206120646561646c696e6543616e6e6f742066696e6973682063616d706169676e206265666f7265206120646561646c696e65a264697066735822122027b7c280665b912dddb30d040b86d2ec43f7cb062b46bb267fe3841c4d70c77564736f6c63430006000033",
  "source": "\r\ncontract CrowdFundingWithDeadline {\r\n\r\n\r\n    enum State { Ongoing, Failed, Succeeded, PaidOut }\r\n    event CampaignFinished(\r\n        address addr,\r\n        uint totalCollected,\r\n        bool succeeded\r\n    );\r\n    \r\n    uint public counter = 0;\r\n    uint time;\r\n    string public name;\r\n    uint public targetAmount;\r\n    uint public campaignDeadline;\r\n    address public beneficiary;\r\n    State public state;\r\n    mapping(address => uint) public amounts;\r\n    bool public collected;\r\n    uint public totalCollected;\r\n\r\n    modifier inState(State expectedState) {\r\n        require(state == expectedState, \"Invalid state\");\r\n        _;\r\n    }\r\n\r\n    constructor(\r\n        string memory campaignName,\r\n        uint targetAmountEth,\r\n        uint durationInMin,\r\n        address beneficiaryAddress\r\n    )\r\n        public\r\n    {\r\n        name = campaignName;\r\n        targetAmount = targetAmountEth * 1 ether;\r\n        campaignDeadline = currentTime() + minutesToSeconds(durationInMin);\r\n        beneficiary = beneficiaryAddress;\r\n        state = State.Ongoing;\r\n    }\r\n\r\n    function contribute() public payable inState(State.Ongoing) {\r\n        require(beforeDeadline(), \"No contributions after a deadline\");\r\n        amounts[msg.sender] += msg.value;\r\n        incrementCounter();\r\n        totalCollected += msg.value;\r\n\r\n        if (totalCollected >= targetAmount) {\r\n            collected = true;\r\n        }\r\n    }\r\n\r\n    function finishCrowdFunding() public inState(State.Ongoing) {\r\n        require(!beforeDeadline(), \"Cannot finish campaign before a deadline\");\r\n\r\n        if (!collected) {\r\n            state = State.Failed;\r\n        } else {\r\n            state = State.Succeeded;\r\n        }\r\n\r\n        emit CampaignFinished(address(this), totalCollected, collected);\r\n    }\r\n\r\n    function collect() public inState(State.Succeeded) {\r\n        if (payable(beneficiary).send(totalCollected)) {\r\n            state = State.PaidOut;\r\n        } else {\r\n            state = State.Failed;\r\n        }\r\n    }\r\n\r\n    function withdraw() public inState(State.Failed) {\r\n        require(amounts[msg.sender] > 0, \"Nothing was contributed\");\r\n        uint contributed = amounts[msg.sender];\r\n        amounts[msg.sender] = 0;\r\n\r\n        if (!payable(msg.sender).send(contributed)) {\r\n            amounts[msg.sender] = contributed;\r\n        }\r\n    }\r\n\r\n    function beforeDeadline() public view returns(bool) {\r\n        return currentTime() < campaignDeadline;\r\n    }\r\n\r\n     function currentTime() internal view returns(uint) {\r\n        return time;\r\n    }\r\n\r\n    function setCurrentTime(uint newTime) public {\r\n        time = newTime;\r\n    }\r\n\r\n    function getTotalCollected() public view returns(uint) {\r\n        return totalCollected;\r\n    }\r\n\r\n    function inProgress() public view returns (bool) {\r\n        return state == State.Ongoing || state == State.Succeeded;\r\n    }\r\n\r\n    function isSuccessful() public view returns (bool) {\r\n        return state == State.PaidOut;\r\n    }\r\n    function getCampaign() public view returns \r\n    (\r\n        string memory campaignName,\r\n        uint targetAmountEth,\r\n        uint durationInMin,\r\n        address beneficiaryAddress,\r\n        uint totalCollect\r\n     \r\n    ) {\r\n        campaignName = name;\r\n        targetAmountEth = targetAmount;\r\n        durationInMin = campaignDeadline;\r\n        beneficiaryAddress = beneficiary;\r\n        totalCollect = totalCollected;\r\n    }\r\n    function etherToWei(uint sumInEth) public pure returns(uint) {\r\n        return sumInEth * 1 ether;\r\n    }\r\n\r\n    function minutesToSeconds(uint timeInMin) public pure returns(uint) {\r\n        return timeInMin * 1 minutes;\r\n    }\r\n    function incrementCounter() public {\r\n        counter += 1;\r\n    }\r\n    function getBackers() public view returns (uint) {\r\n        return counter;\r\n    }\r\n\r\n}\r\n\r\n\r\n       \r\n\r\n\r\n",
  "sourcePath": "C:\\Users\\ErtugrulSen\\Desktop\\DFX\\Hackhathon 2022 - BlockChain\\CrowdFundingWithDeadline\\contracts\\CrowdFundingWithDeadline.sol",
  "compiler": {
    "name": "solc",
    "version": "0.6.0+commit.26b70077.Emscripten.clang"
  },
  "schemaVersion": "3.4.7",
  "updatedAt": "2022-06-24T19:25:33.510Z",
  "networkType": "ethereum",
  "devdoc": {
    "methods": {}
  },
  "userdoc": {
    "methods": {}
  }
}